{
  "contractName": "SeguroFactory",
  "abi": [
    {
      "inputs": [],
      "stateMutability": "nonpayable",
      "type": "constructor"
    },
    {
      "inputs": [
        {
          "internalType": "uint256",
          "name": "",
          "type": "uint256"
        }
      ],
      "name": "seguros",
      "outputs": [
        {
          "internalType": "address",
          "name": "",
          "type": "address"
        }
      ],
      "stateMutability": "view",
      "type": "function",
      "constant": true
    },
    {
      "inputs": [
        {
          "internalType": "uint256",
          "name": "_adminTax",
          "type": "uint256"
        },
        {
          "internalType": "address[]",
          "name": "_members",
          "type": "address[]"
        },
        {
          "internalType": "string[]",
          "name": "_imeis",
          "type": "string[]"
        },
        {
          "internalType": "uint256",
          "name": "_lmiTax",
          "type": "uint256"
        }
      ],
      "name": "createSeguro",
      "outputs": [],
      "stateMutability": "nonpayable",
      "type": "function"
    }
  ],
  "bytecode": "0x608060405234801561001057600080fd5b50336000806101000a81548173ffffffffffffffffffffffffffffffffffffffff021916908373ffffffffffffffffffffffffffffffffffffffff160217905550612cb3806100606000396000f3fe60806040523480156200001157600080fd5b50600436106200003a5760003560e01c80630cb9a7b0146200003f5780639d980340146200005f575b600080fd5b6200005d60048036038101906200005791906200062b565b62000095565b005b6200007d6004803603810190620000779190620006db565b620001f5565b6040516200008c91906200071e565b60405180910390f35b3373ffffffffffffffffffffffffffffffffffffffff1660008054906101000a900473ffffffffffffffffffffffffffffffffffffffff1673ffffffffffffffffffffffffffffffffffffffff161462000126576040517f08c379a00000000000000000000000000000000000000000000000000000000081526004016200011d906200079c565b60405180910390fd5b60008484848460008054906101000a900473ffffffffffffffffffffffffffffffffffffffff166040516200015b9062000235565b6200016b959493929190620009f6565b604051809103906000f08015801562000188573d6000803e3d6000fd5b5090506001819080600181540180825580915050600190039060005260206000200160009091909190916101000a81548173ffffffffffffffffffffffffffffffffffffffff021916908373ffffffffffffffffffffffffffffffffffffffff1602179055505050505050565b600181815481106200020657600080fd5b906000526020600020016000915054906101000a900473ffffffffffffffffffffffffffffffffffffffff1681565b61221c8062000a6283390190565b6000604051905090565b600080fd5b600080fd5b6000819050919050565b6200026c8162000257565b81146200027857600080fd5b50565b6000813590506200028c8162000261565b92915050565b600080fd5b6000601f19601f8301169050919050565b7f4e487b7100000000000000000000000000000000000000000000000000000000600052604160045260246000fd5b620002e28262000297565b810181811067ffffffffffffffff82111715620003045762000303620002a8565b5b80604052505050565b60006200031962000243565b9050620003278282620002d7565b919050565b600067ffffffffffffffff8211156200034a5762000349620002a8565b5b602082029050602081019050919050565b600080fd5b600073ffffffffffffffffffffffffffffffffffffffff82169050919050565b60006200038d8262000360565b9050919050565b6200039f8162000380565b8114620003ab57600080fd5b50565b600081359050620003bf8162000394565b92915050565b6000620003dc620003d6846200032c565b6200030d565b905080838252602082019050602084028301858111156200040257620004016200035b565b5b835b818110156200042f57806200041a8882620003ae565b84526020840193505060208101905062000404565b5050509392505050565b600082601f83011262000451576200045062000292565b5b813562000463848260208601620003c5565b91505092915050565b600067ffffffffffffffff8211156200048a5762000489620002a8565b5b602082029050602081019050919050565b600080fd5b600067ffffffffffffffff821115620004be57620004bd620002a8565b5b620004c98262000297565b9050602081019050919050565b82818337600083830152505050565b6000620004fc620004f684620004a0565b6200030d565b9050828152602081018484840111156200051b576200051a6200049b565b5b62000528848285620004d6565b509392505050565b600082601f83011262000548576200054762000292565b5b81356200055a848260208601620004e5565b91505092915050565b60006200057a62000574846200046c565b6200030d565b90508083825260208201905060208402830185811115620005a0576200059f6200035b565b5b835b81811015620005ee57803567ffffffffffffffff811115620005c957620005c862000292565b5b808601620005d8898262000530565b85526020850194505050602081019050620005a2565b5050509392505050565b600082601f83011262000610576200060f62000292565b5b81356200062284826020860162000563565b91505092915050565b600080600080608085870312156200064857620006476200024d565b5b600062000658878288016200027b565b945050602085013567ffffffffffffffff8111156200067c576200067b62000252565b5b6200068a8782880162000439565b935050604085013567ffffffffffffffff811115620006ae57620006ad62000252565b5b620006bc87828801620005f8565b9250506060620006cf878288016200027b565b91505092959194509250565b600060208284031215620006f457620006f36200024d565b5b600062000704848285016200027b565b91505092915050565b620007188162000380565b82525050565b60006020820190506200073560008301846200070d565b92915050565b600082825260208201905092915050565b7f4e6f74206f776e65720000000000000000000000000000000000000000000000600082015250565b6000620007846009836200073b565b915062000791826200074c565b602082019050919050565b60006020820190508181036000830152620007b78162000775565b9050919050565b620007c98162000257565b82525050565b600081519050919050565b600082825260208201905092915050565b6000819050602082019050919050565b620008068162000380565b82525050565b60006200081a8383620007fb565b60208301905092915050565b6000602082019050919050565b60006200084082620007cf565b6200084c8185620007da565b93506200085983620007eb565b8060005b83811015620008905781516200087488826200080c565b9750620008818362000826565b9250506001810190506200085d565b5085935050505092915050565b600081519050919050565b600082825260208201905092915050565b6000819050602082019050919050565b600081519050919050565b600082825260208201905092915050565b60005b8381101562000905578082015181840152602081019050620008e8565b60008484015250505050565b60006200091e82620008c9565b6200092a8185620008d4565b93506200093c818560208601620008e5565b620009478162000297565b840191505092915050565b600062000960838362000911565b905092915050565b6000602082019050919050565b600062000982826200089d565b6200098e8185620008a8565b935083602082028501620009a285620008b9565b8060005b85811015620009e45784840389528151620009c2858262000952565b9450620009cf8362000968565b925060208a01995050600181019050620009a6565b50829750879550505050505092915050565b600060a08201905062000a0d6000830188620007be565b818103602083015262000a21818762000833565b9050818103604083015262000a37818662000975565b905062000a486060830185620007be565b62000a5760808301846200070d565b969550505050505056fe60806040523480156200001157600080fd5b506040516200221c3803806200221c833981810160405281019062000037919062000619565b806000806101000a81548173ffffffffffffffffffffffffffffffffffffffff021916908373ffffffffffffffffffffffffffffffffffffffff1602179055508460018190555060005b84518110156200020157838181518110620000a157620000a0620006df565b5b602002602001015160046000878481518110620000c357620000c2620006df565b5b602002602001015173ffffffffffffffffffffffffffffffffffffffff1673ffffffffffffffffffffffffffffffffffffffff16815260200190815260200160002090816200011391906200094f565b5060006005600087848151811062000130576200012f620006df565b5b602002602001015173ffffffffffffffffffffffffffffffffffffffff1673ffffffffffffffffffffffffffffffffffffffff16815260200190815260200160002081905550600060066000878481518110620001925762000191620006df565b5b602002602001015173ffffffffffffffffffffffffffffffffffffffff1673ffffffffffffffffffffffffffffffffffffffff16815260200190815260200160002060006101000a81548160ff0219169083151502179055508080620001f89062000a65565b91505062000081565b5081600381905550505050505062000ab2565b6000604051905090565b600080fd5b600080fd5b6000819050919050565b6200023d8162000228565b81146200024957600080fd5b50565b6000815190506200025d8162000232565b92915050565b600080fd5b6000601f19601f8301169050919050565b7f4e487b7100000000000000000000000000000000000000000000000000000000600052604160045260246000fd5b620002b38262000268565b810181811067ffffffffffffffff82111715620002d557620002d462000279565b5b80604052505050565b6000620002ea62000214565b9050620002f88282620002a8565b919050565b600067ffffffffffffffff8211156200031b576200031a62000279565b5b602082029050602081019050919050565b600080fd5b600073ffffffffffffffffffffffffffffffffffffffff82169050919050565b60006200035e8262000331565b9050919050565b620003708162000351565b81146200037c57600080fd5b50565b600081519050620003908162000365565b92915050565b6000620003ad620003a784620002fd565b620002de565b90508083825260208201905060208402830185811115620003d357620003d26200032c565b5b835b81811015620004005780620003eb88826200037f565b845260208401935050602081019050620003d5565b5050509392505050565b600082601f83011262000422576200042162000263565b5b81516200043484826020860162000396565b91505092915050565b600067ffffffffffffffff8211156200045b576200045a62000279565b5b602082029050602081019050919050565b600080fd5b600067ffffffffffffffff8211156200048f576200048e62000279565b5b6200049a8262000268565b9050602081019050919050565b60005b83811015620004c7578082015181840152602081019050620004aa565b60008484015250505050565b6000620004ea620004e48462000471565b620002de565b9050828152602081018484840111156200050957620005086200046c565b5b62000516848285620004a7565b509392505050565b600082601f83011262000536576200053562000263565b5b815162000548848260208601620004d3565b91505092915050565b60006200056862000562846200043d565b620002de565b905080838252602082019050602084028301858111156200058e576200058d6200032c565b5b835b81811015620005dc57805167ffffffffffffffff811115620005b757620005b662000263565b5b808601620005c689826200051e565b8552602085019450505060208101905062000590565b5050509392505050565b600082601f830112620005fe57620005fd62000263565b5b81516200061084826020860162000551565b91505092915050565b600080600080600060a086880312156200063857620006376200021e565b5b600062000648888289016200024c565b955050602086015167ffffffffffffffff8111156200066c576200066b62000223565b5b6200067a888289016200040a565b945050604086015167ffffffffffffffff8111156200069e576200069d62000223565b5b620006ac88828901620005e6565b9350506060620006bf888289016200024c565b9250506080620006d2888289016200037f565b9150509295509295909350565b7f4e487b7100000000000000000000000000000000000000000000000000000000600052603260045260246000fd5b600081519050919050565b7f4e487b7100000000000000000000000000000000000000000000000000000000600052602260045260246000fd5b600060028204905060018216806200076157607f821691505b60208210810362000777576200077662000719565b5b50919050565b60008190508160005260206000209050919050565b60006020601f8301049050919050565b600082821b905092915050565b600060088302620007e17fffffffffffffffffffffffffffffffffffffffffffffffffffffffffffffffff82620007a2565b620007ed8683620007a2565b95508019841693508086168417925050509392505050565b6000819050919050565b6000620008306200082a620008248462000228565b62000805565b62000228565b9050919050565b6000819050919050565b6200084c836200080f565b620008646200085b8262000837565b848454620007af565b825550505050565b600090565b6200087b6200086c565b6200088881848462000841565b505050565b5b81811015620008b057620008a460008262000871565b6001810190506200088e565b5050565b601f821115620008ff57620008c9816200077d565b620008d48462000792565b81016020851015620008e4578190505b620008fc620008f38562000792565b8301826200088d565b50505b505050565b600082821c905092915050565b6000620009246000198460080262000904565b1980831691505092915050565b60006200093f838362000911565b9150826002028217905092915050565b6200095a826200070e565b67ffffffffffffffff81111562000976576200097562000279565b5b62000982825462000748565b6200098f828285620008b4565b600060209050601f831160018114620009c75760008415620009b2578287015190505b620009be858262000931565b86555062000a2e565b601f198416620009d7866200077d565b60005b8281101562000a0157848901518255600182019150602085019450602081019050620009da565b8683101562000a21578489015162000a1d601f89168262000911565b8355505b6001600288020188555050505b505050505050565b7f4e487b7100000000000000000000000000000000000000000000000000000000600052601160045260246000fd5b600062000a728262000228565b91507fffffffffffffffffffffffffffffffffffffffffffffffffffffffffffffffff820362000aa75762000aa662000a36565b5b600182019050919050565b61175a8062000ac26000396000f3fe6080604052600436106100865760003560e01c80636f9fb98a116100595780636f9fb98a146101385780636fcab40914610163578063a4015a4b1461016d578063c704665d146101aa578063d7d8bcff146101b457610086565b806305915cf81461008b578063145f919c146100a75780633a96fdd7146100e457806363ffe7e314610121575b600080fd5b6100a560048036038101906100a09190611112565b6101df565b005b3480156100b357600080fd5b506100ce60048036038101906100c991906111b1565b6106fa565b6040516100db9190611244565b60405180910390f35b3480156100f057600080fd5b5061010b600480360381019061010691906111b1565b610754565b6040516101189190611244565b60405180910390f35b34801561012d57600080fd5b506101366107ad565b005b34801561014457600080fd5b5061014d610870565b60405161015a919061126e565b60405180910390f35b61016b610878565b005b34801561017957600080fd5b50610194600480360381019061018f9190611289565b610a47565b6040516101a19190611335565b60405180910390f35b6101b2610b18565b005b3480156101c057600080fd5b506101c9610d3d565b6040516101d6919061126e565b60405180910390f35b60008054906101000a900473ffffffffffffffffffffffffffffffffffffffff1673ffffffffffffffffffffffffffffffffffffffff163373ffffffffffffffffffffffffffffffffffffffff161461023757600080fd5b83600660008273ffffffffffffffffffffffffffffffffffffffff1673ffffffffffffffffffffffffffffffffffffffff16815260200190815260200160002060009054906101000a900460ff1661028e57600080fd5b61035f600460008773ffffffffffffffffffffffffffffffffffffffff1673ffffffffffffffffffffffffffffffffffffffff16815260200190815260200160002080546102db90611386565b80601f016020809104026020016040519081016040528092919081815260200182805461030790611386565b80156103545780601f1061032957610100808354040283529160200191610354565b820191906000526020600020905b81548152906001019060200180831161033757829003601f168201915b505050505085610754565b61039e576040517f08c379a000000000000000000000000000000000000000000000000000000000815260040161039590611403565b60405180910390fd5b6000600560008773ffffffffffffffffffffffffffffffffffffffff1673ffffffffffffffffffffffffffffffffffffffff168152602001908152602001600020549050836103f860035483610ddc90919063ffffffff16565b1061049f578573ffffffffffffffffffffffffffffffffffffffff166108fc859081150290604051600060405180830381858888f19350505050158015610443573d6000803e3d6000fd5b506104578482610df290919063ffffffff16565b600560008873ffffffffffffffffffffffffffffffffffffffff1673ffffffffffffffffffffffffffffffffffffffff168152602001908152602001600020819055506106f2565b60006104b48286610df290919063ffffffff16565b90506000600560008973ffffffffffffffffffffffffffffffffffffffff1673ffffffffffffffffffffffffffffffffffffffff1681526020019081526020016000208190555060006105108347610df290919063ffffffff16565b905060005b85518110156106a75760008211610561576040517f08c379a000000000000000000000000000000000000000000000000000000000815260040161055890611495565b60405180910390fd5b60006005600088848151811061057a576105796114b5565b5b602002602001015173ffffffffffffffffffffffffffffffffffffffff1673ffffffffffffffffffffffffffffffffffffffff16815260200190815260200160002054905060006105ee846105e0670de0b6b3a764000085610ddc90919063ffffffff16565b610e0890919063ffffffff16565b9050600061061f670de0b6b3a76400006106118489610ddc90919063ffffffff16565b610e0890919063ffffffff16565b90506106348184610df290919063ffffffff16565b600560008b878151811061064b5761064a6114b5565b5b602002602001015173ffffffffffffffffffffffffffffffffffffffff1673ffffffffffffffffffffffffffffffffffffffff16815260200190815260200160002081905550505050808061069f90611513565b915050610515565b508773ffffffffffffffffffffffffffffffffffffffff166108fc879081150290604051600060405180830381858888f193505050501580156106ee573d6000803e3d6000fd5b5050505b505050505050565b60008160405160200161070d9190611597565b60405160208183030381529060405280519060200120836040516020016107349190611597565b604051602081830303815290604052805190602001201415905092915050565b6000816040516020016107679190611597565b604051602081830303815290604052805190602001208360405160200161078e9190611597565b6040516020818303038152906040528051906020012014905092915050565b60008054906101000a900473ffffffffffffffffffffffffffffffffffffffff1673ffffffffffffffffffffffffffffffffffffffff163373ffffffffffffffffffffffffffffffffffffffff161461080557600080fd5b60008054906101000a900473ffffffffffffffffffffffffffffffffffffffff1673ffffffffffffffffffffffffffffffffffffffff166108fc6002549081150290604051600060405180830381858888f1935050505015801561086d573d6000803e3d6000fd5b50565b600047905090565b33600660008273ffffffffffffffffffffffffffffffffffffffff1673ffffffffffffffffffffffffffffffffffffffff16815260200190815260200160002060009054906101000a900460ff166108cf57600080fd5b6109af600460003373ffffffffffffffffffffffffffffffffffffffff1673ffffffffffffffffffffffffffffffffffffffff168152602001908152602001600020805461091c90611386565b80601f016020809104026020016040519081016040528092919081815260200182805461094890611386565b80156109955780601f1061096a57610100808354040283529160200191610995565b820191906000526020600020905b81548152906001019060200180831161097857829003601f168201915b5050505050604051806020016040528060008152506106fa565b6109ee576040517f08c379a00000000000000000000000000000000000000000000000000000000081526004016109e5906115fa565b60405180910390fd5b34600560003373ffffffffffffffffffffffffffffffffffffffff1673ffffffffffffffffffffffffffffffffffffffff1681526020019081526020016000206000828254610a3d919061161a565b9250508190555050565b6060600460008373ffffffffffffffffffffffffffffffffffffffff1673ffffffffffffffffffffffffffffffffffffffff1681526020019081526020016000208054610a9390611386565b80601f0160208091040260200160405190810160405280929190818152602001828054610abf90611386565b8015610b0c5780601f10610ae157610100808354040283529160200191610b0c565b820191906000526020600020905b815481529060010190602001808311610aef57829003601f168201915b50505050509050919050565b610bf8600460003373ffffffffffffffffffffffffffffffffffffffff1673ffffffffffffffffffffffffffffffffffffffff1681526020019081526020016000208054610b6590611386565b80601f0160208091040260200160405190810160405280929190818152602001828054610b9190611386565b8015610bde5780601f10610bb357610100808354040283529160200191610bde565b820191906000526020600020905b815481529060010190602001808311610bc157829003601f168201915b5050505050604051806020016040528060008152506106fa565b610c37576040517f08c379a0000000000000000000000000000000000000000000000000000000008152600401610c2e906115fa565b60405180910390fd5b606460015434610c47919061164e565b610c5191906116bf565b34610c5c91906116f0565b600560003373ffffffffffffffffffffffffffffffffffffffff1673ffffffffffffffffffffffffffffffffffffffff1681526020019081526020016000206000828254610caa919061161a565b92505081905550606460015434610cc1919061164e565b610ccb91906116bf565b60026000828254610cdc919061161a565b925050819055506001600660003373ffffffffffffffffffffffffffffffffffffffff1673ffffffffffffffffffffffffffffffffffffffff16815260200190815260200160002060006101000a81548160ff021916908315150217905550565b600033600660008273ffffffffffffffffffffffffffffffffffffffff1673ffffffffffffffffffffffffffffffffffffffff16815260200190815260200160002060009054906101000a900460ff16610d9657600080fd5b600560003373ffffffffffffffffffffffffffffffffffffffff1673ffffffffffffffffffffffffffffffffffffffff1681526020019081526020016000205491505090565b60008183610dea919061164e565b905092915050565b60008183610e0091906116f0565b905092915050565b60008183610e1691906116bf565b905092915050565b6000604051905090565b600080fd5b600080fd5b600073ffffffffffffffffffffffffffffffffffffffff82169050919050565b6000610e5d82610e32565b9050919050565b610e6d81610e52565b8114610e7857600080fd5b50565b600081359050610e8a81610e64565b92915050565b600080fd5b600080fd5b6000601f19601f8301169050919050565b7f4e487b7100000000000000000000000000000000000000000000000000000000600052604160045260246000fd5b610ee382610e9a565b810181811067ffffffffffffffff82111715610f0257610f01610eab565b5b80604052505050565b6000610f15610e1e565b9050610f218282610eda565b919050565b600067ffffffffffffffff821115610f4157610f40610eab565b5b610f4a82610e9a565b9050602081019050919050565b82818337600083830152505050565b6000610f79610f7484610f26565b610f0b565b905082815260208101848484011115610f9557610f94610e95565b5b610fa0848285610f57565b509392505050565b600082601f830112610fbd57610fbc610e90565b5b8135610fcd848260208601610f66565b91505092915050565b6000819050919050565b610fe981610fd6565b8114610ff457600080fd5b50565b60008135905061100681610fe0565b92915050565b600067ffffffffffffffff82111561102757611026610eab565b5b602082029050602081019050919050565b600080fd5b600061104882610e32565b9050919050565b6110588161103d565b811461106357600080fd5b50565b6000813590506110758161104f565b92915050565b600061108e6110898461100c565b610f0b565b905080838252602082019050602084028301858111156110b1576110b0611038565b5b835b818110156110da57806110c68882611066565b8452602084019350506020810190506110b3565b5050509392505050565b600082601f8301126110f9576110f8610e90565b5b813561110984826020860161107b565b91505092915050565b6000806000806080858703121561112c5761112b610e28565b5b600061113a87828801610e7b565b945050602085013567ffffffffffffffff81111561115b5761115a610e2d565b5b61116787828801610fa8565b935050604061117887828801610ff7565b925050606085013567ffffffffffffffff81111561119957611198610e2d565b5b6111a5878288016110e4565b91505092959194509250565b600080604083850312156111c8576111c7610e28565b5b600083013567ffffffffffffffff8111156111e6576111e5610e2d565b5b6111f285828601610fa8565b925050602083013567ffffffffffffffff81111561121357611212610e2d565b5b61121f85828601610fa8565b9150509250929050565b60008115159050919050565b61123e81611229565b82525050565b60006020820190506112596000830184611235565b92915050565b61126881610fd6565b82525050565b6000602082019050611283600083018461125f565b92915050565b60006020828403121561129f5761129e610e28565b5b60006112ad84828501611066565b91505092915050565b600081519050919050565b600082825260208201905092915050565b60005b838110156112f05780820151818401526020810190506112d5565b60008484015250505050565b6000611307826112b6565b61131181856112c1565b93506113218185602086016112d2565b61132a81610e9a565b840191505092915050565b6000602082019050818103600083015261134f81846112fc565b905092915050565b7f4e487b7100000000000000000000000000000000000000000000000000000000600052602260045260246000fd5b6000600282049050600182168061139e57607f821691505b6020821081036113b1576113b0611357565b5b50919050565b7f494d454920666f726e656369646f206e616f20636f72726573706f6e64650000600082015250565b60006113ed601e836112c1565b91506113f8826113b7565b602082019050919050565b6000602082019050818103600083015261141c816113e0565b9050919050565b7f4e616f2068612066756e646f7320737566696369656e7465732070617261206460008201527f6973747269627569720000000000000000000000000000000000000000000000602082015250565b600061147f6029836112c1565b915061148a82611423565b604082019050919050565b600060208201905081810360008301526114ae81611472565b9050919050565b7f4e487b7100000000000000000000000000000000000000000000000000000000600052603260045260246000fd5b7f4e487b7100000000000000000000000000000000000000000000000000000000600052601160045260246000fd5b600061151e82610fd6565b91507fffffffffffffffffffffffffffffffffffffffffffffffffffffffffffffffff82036115505761154f6114e4565b5b600182019050919050565b600081905092915050565b6000611571826112b6565b61157b818561155b565b935061158b8185602086016112d2565b80840191505092915050565b60006115a38284611566565b915081905092915050565b7f446575207275696d000000000000000000000000000000000000000000000000600082015250565b60006115e46008836112c1565b91506115ef826115ae565b602082019050919050565b60006020820190508181036000830152611613816115d7565b9050919050565b600061162582610fd6565b915061163083610fd6565b9250828201905080821115611648576116476114e4565b5b92915050565b600061165982610fd6565b915061166483610fd6565b925082820261167281610fd6565b91508282048414831517611689576116886114e4565b5b5092915050565b7f4e487b7100000000000000000000000000000000000000000000000000000000600052601260045260246000fd5b60006116ca82610fd6565b91506116d583610fd6565b9250826116e5576116e4611690565b5b828204905092915050565b60006116fb82610fd6565b915061170683610fd6565b925082820390508181111561171e5761171d6114e4565b5b9291505056fea26469706673582212203e7c5343fafc025e764e16b664bdb03504c3277ab987d0c2754e3edff844092164736f6c63430008120033a26469706673582212207a1eaa889f6b4ddf75a5bce2b4aba7a703c869d0fd7d6e13429fb9404668352964736f6c63430008120033",
  "immutableReferences": {},
  "source": "// SPDX-License-Identifier: GPL-3.0\n\npragma solidity ^0.8.7;\n\nimport \"./seguroSprint3.sol\";\n\ncontract SeguroFactory {\n    address owner;\n\n    address[] public seguros;\n\n    constructor() {\n        owner = msg.sender;\n    }\n\n    modifier isOwner() {\n        require(owner == msg.sender, \"Not owner\");\n        _;\n    }\n\n    function createSeguro(\n        uint256 _adminTax,\n        address[] memory _members,\n        string[] memory _imeis,\n        uint _lmiTax\n    ) public isOwner {\n        Seguro2 seguro = new Seguro2(\n            _adminTax,\n            _members,\n            _imeis,\n            _lmiTax,\n            owner\n        );\n        seguros.push(address(seguro));\n    }\n}\n",
  "sourcePath": "/Users/lyo.quintao/Documents/GitHub/Projeto-Coover/truffle/contracts/seguroFactory.sol",
  "compiler": {
    "name": "solc",
    "version": "0.8.18+commit.87f61d96.Emscripten.clang"
  },
  "schemaVersion": "3.4.13",
  "updatedAt": "2023-03-25T01:18:40.212Z",
  "networkType": "ethereum",
  "devdoc": {
    "kind": "dev",
    "methods": {},
    "version": 1
  },
  "userdoc": {
    "kind": "user",
    "methods": {},
    "version": 1
  }
}